:100000000C94BE050C94DB050C94DB050C94792E46
:100010000C94DB050C94DB050C94DB050C94DB05E0
:100020000C94DB050C94DB050C941A2B0C94022C1D
:100030000C949F1A0C94DB050C94DB050C94DB05E7
:100040000C94DB050C94DB050C94DB050C94DB05B0
:100050000C94DB050C94F62A0C94DB050C94DB0560
:100060000C94DB050C94DB050C94DB050C94DB0590
:100070000C94DB050C94DB050C94DB050C94DB0580
:100080000C94DB050C94DB050C94DB050C94DB0570
:100090000C94DB050C94DB050C94DB050C94DB0560
:1000A0000C94DB050C94DB050C94DB0500AF00AE73
:1000B0000000000000003E5B4F5B3E003E6B4F6B5C
:1000C0003E001C3E7C3E1C00183C7E3C18001C5729
:1000D0007D571C001C5E7F5E1C0000183C18000051
:1000E000FFE7C3E7FF00001824180000FFE7DBE785
:1000F000FF0030483A060E00262979292600407F65
:1001000005050700407F05253F005A3CE73C5A00A3
:100110007F3E1C1C0800081C1C3E7F0014227F220E
:1001200014005F5F005F5F0006097F017F000066CB
:1001300089956A0060606060600094A2FFA29400EC
:1001400008047E04080010207E20100008082A1CE5
:100150000800081C2A0808001E10101010000C1EB1
:100160000C1E0C0030383E383000060E3E0E0600E5
:1001700000000000000000005F0000000007000712
:100180000000147F147F1400242A7F2A12002313F6
:10019000086462003649562050000008070300003A
:1001A000001C224100000041221C00002A1C7F1C70
:1001B0002A0008083E080800008070300000080887
:1001C0000808080000006060000020100804020019
:1001D0003E5149453E0000427F4000007249494976
:1001E00046002141494D33001814127F1000274565
:1001F000454539003C4A4949310041211109070070
:10020000364949493600464949291E000000140074
:1002100000000040340000000008142241001414C3
:1002200014141400004122140800020159090600A8
:100230003E415D594E007C1211127C007F494949B4
:1002400036003E41414122007F4141413E007F490D
:10025000494941007F09090901003E4141517300AC
:100260007F0808087F0000417F4100002040413F97
:1002700001007F08142241007F40404040007F027F
:100280001C027F007F0408107F003E4141413E0078
:100290007F09090906003E4151215E007F091929A5
:1002A000460026494949320003017F0103003F40CF
:1002B00040403F001F2040201F003F4038403F008B
:1002C0006314081463000304780403006159494D62
:1002D0004300007F4141410002040810200000411A
:1002E00041417F00040201020400404040404000C0
:1002F0000003070800002054547840007F2844443D
:100300003800384444442800384444287F00385496
:100310005454180000087E0902001824241C780098
:100320007F080404780000447D4000002040403DE8
:1003300000007F102844000000417F4000007C0442
:10034000780478007C080404780038444444380079
:100350007C1824241800182424187C007C08040429
:10036000080048545454240004043F4424003C40F2
:1003700040207C001C2040201C003C4030403C00C1
:100380004428102844004C9090907C004464544CC5
:1003900044000008364100000000770000000041E2
:1003A000360800000201020402003C2623263C001D
:1003B000000000000000000000000000000000003D
:1003C000C0E0F0F8F81800C0F0FCFEFFFFFFFFFFF0
:1003D000FFFF7E00000000000000000080C0E0E0A1
:1003E000E0E0E0E0E0E0C0800000000080C0E0E08D
:1003F000E0E0E0E0E0E0C080000000E0E0C0C0E05D
:10040000E0E0E00000E0E0C0C0E0E0E0E0E0C0806C
:100410000000000080C0E0E0E0E0E0E0E0E0C0805C
:100420000000000000000000000000000000E0F0FC
:10043000F0F0E0ECEEF7F37020007C7C7C7E007E38
:100440007E7E7F7F7F000080C0E07E5B4F5BFEC0D2
:100450000000C000DCD7DEDEDED7DC00C00000001C
:10046000000000000000000000000000000000008C
:10047000000000000000000000F8FCFEFFE000FFAC
:10048000FFFFFFFFFF80FFFFFFFFFFFFFFFFFF1FDB
:100490000701000000000000000000FFFFFF8100D6
:1004A000000000000081C3C3C30000FFFFFF810004
:1004B000000000000081FFFFFF0000FFFFFF0100C0
:1004C0000000000000FFFFFF010000000001FFFF2F
:1004D000FF0000FFFFFF9D1C1C1C1C1C1C9DDFDF80
:1004E000DF000000000000000000000000000F1FFF
:1004F0003F7F7F7F7F7F3F1E0C001F1F1F3F003FFE
:100500003F3F7F7F7F00307B7F7830202030787FB7
:100510003B0003000F7F0F0F0F7F0F000300000051
:1005200000000000000000000000000000000000CB
:10053000000000000000000000030F1F3F3F3F3F8E
:100540001F1F3F3F7F7F7F3F3F1F3F7F7F7F7F7C1E
:100550007878381C0F000000000000000103070736
:10056000070707070707030100000000010307074B
:100570000707070707070301000000070707000038
:100580000000000000070707000000000000070748
:100590000700000001030707070707070707030114
:1005A000000000000000000000000000000000004B
:1005B000000000000000000000000000000000003B
:1005C000000000000000000000000000000000002B
:1005D000000000000000000000000000000000001B
:1005E000000000000000000000000000000000000B
:1005F00005010980A101850319012AB7001501260B
:10060000B700950175108100C0050C0901A1018595
:100610000419012AA002150126A002950175108176
:1006200000C005010906A1018506050719E029E7B3
:10063000150025019508750181020507190029EFAC
:100640001500250195F0750181020508190129059C
:10065000950575019102950175039101C005010988
:1006600006A101050719E029E71500250195087580
:100670000181029501750881010507190029FF15FF
:100680000026FF0095067508810005081901290557
:1006900015002501950575019102950175039101DC
:1006A000C009023B00020100A0FA09040000010396
:1006B0000101000921110100012244000705810305
:1006C00008000109040100010300000009211101D3
:1006D0000001226D000705820320000112010002C3
:1006E00000000008534601000100010200010C0354
:1006F00043006F0072006E0065000000100366008A
:100700006F006F007300740061006E00000004034E
:1007100009042223252628292A2C2D2F303233356F
:1007200036383A3B3D3E4042434547494A4C4E509D
:1007300051535557595A5C5E6062646668696B6DC7
:100740006F71737577797B7D7F81838587898A8CCB
:100750008E90929496989A9C9E9FA1A3A5A7A8AAD2
:10076000ACAEAFB1B3B4B6B8B9BBBCBEBFC1C2C307
:10077000C5C6C7C9CACBCCCDCED0D1D2D2D3D4D5A1
:10078000D6D7D7D8D9D9DADADBDBDBDCDCDCDCDCCA
:10079000DDDDDDDDDCDCDCDCDCDBDBDBDADAD9D9A2
:1007A000D8D7D7D6D5D4D3D2D2D1D0CECDCCCBCA30
:1007B000C9C7C6C5C3C2C1BFBEBCBBB9B8B6B4B356
:1007C000B1AFAEACAAA8A7A5A3A19F9E9C9A9896EC
:1007D0009492908E8C8A89878583817F7D7B7977BF
:1007E0007573716F6D6B6968666462605E5C5A599F
:1007F00057555351504E4C4A4947454342403E3D60
:100800003B3A3836353332302F2D2C2A29282625ED
:100810002322FFAA7F5540000101010101010101CE
:1008200001020202020202020202030303030303A3
:100830000303040404040404040505050505060671
:10084000060606070707070708080808090909092F
:100850000A0A0A0B0B0B0C0C0C0D0D0D0E0E0E0FD5
:100860000F0F101011111112121313141415151665
:10087000161717181819191A1A1B1B1C1D1D1E1ED6
:100880001F20202122222324242526262728292927
:100890002A2B2C2D2D2E2F30313232333435363752
:1008A00038393A3B3C3D3E3F404142434445464750
:1008B00048494A4C4D4E4F50515354555658595A29
:1008C0005B5D5E5F616264656668696B6C6D6F70CD
:1008D00072737577787A7B7D7E8082838587888A3C
:1008E0008C8E8F91939596989A9C9EA0A2A3A5A773
:1008F000A9ABADAFB1B3B5B7BABCBEC0C2C4C6C96F
:10090000CBCDCFD1D4D6D8DBDDDFE2E4E7E9EBEE27
:10091000F0F3F5F8FAFDFF00DA0281FFD9F1DB20F0
:10092000A4A62EAF00A0C0D30000A1C8D30000AE83
:10093000D580A81F408D1420001E0F0500047F3FA6
:100940001F643214643214783C1E1E140A05808120
:1009500082838485868788898A8B8C8D8E8F9091FF
:10096000929394A0A1A2A3A4A5A6A7A8A9AAABAC60
:10097000ADAEAFB0B1B2B3B4C0C1C2C3C4C5C6C7D7
:10098000C8C9CACBCCCDCECFD0D1D2D3D4003A00B7
:100990002C206B007800556E6465660041646A75B2
:1009A0007374005261697365004C6F77657200441F
:1009B000656661756C74004C617965723A20002B34
:1009C0000014001A00080015001700E000042116AA
:1009D00024072809220A00E1001D001B0006001957
:1009E000000500000000000000E30021522C002A56
:1009F00000130012000C0018001C00340033310FEB
:100A0000340E380D320B0029003800370036001044
:100A1000001100000000000000E600225228002B18
:100A2000001E001F00200021002200E00000000046
:100A300000000000000000E10000000000000000D5
:100A4000000000000000000000E30001002C002A6C
:100A50000027002600250024002300000000004F8E
:100A60000052005100500000000000000000000093
:100A7000000000000000000000E600235228002BC8
:100A8000001E021F02200221022202E000000000DC
:100A900000000000000000E1000000000000000075
:100AA000000000000000000000E30023522C002A98
:100AB00000270226022502240223023500310030DD
:100AC000002F002E002D003502310230022F022EA1
:100AD000022D02000000000000E6000100280000D6
:100AE0007C00000000000000000000207823782532
:100AF000782778000000002178247826782878006C
:100B0000000000000000000000E30001002C0000D5
:100B100000000000000000000000000000000000D5
:100B200000000000000000000000000000000000C5
:100B3000000000000000000000E600010028002086
:100B40002020206162636465666768696A6B6C6D0A
:100B50006E6F707172737475767778797A3132331B
:100B600034353637383930524542545F2D3D5B5D60
:100B70005C233B27602C2E2F2020200011241FBE39
:100B8000CFEFDAE0DEBFCDBF27E0A4E0B2E001C0E6
:100B90001D92A034B207E1F712E0A0E0B1E0EEED63
:100BA000F3E602C005900D92A430B107D9F70E9478
:100BB0001B250C94AF310C9400009093F8068093A1
:100BC000F70680E090E008959093FA068093F90686
:100BD00080E090E0089521E030E002C0220F331F52
:100BE0008A95E2F78091F9069091FA06822B932B71
:100BF0000E94E40520E030E080E090E0089521E0EC
:100C000030E002C0220F331F8A95E2F7209530951D
:100C10008091F9069091FA06822393230E94E405BD
:100C200020E030E080E090E00895983090F5863044
:100C300080F5E82FF0E086E0989FE00DF11D11248B
:100C40008E2F877041E001C0440F8A95EAF783E058
:100C5000F695E7958A95E1F7EE0FFF1FEE0FFF1F60
:100C6000E553F94F20E030E070E05191DF01CB0116
:100C7000022E02C0969587950A94E2F781708195BD
:100C80008527842385278E932F5F3F4F243031059E
:100C900061F720E030E040E050E060E070E080E0AC
:100CA00090E0A0E0B0E0E0E0F0E008959830B0F52A
:100CB0008630A0F5E82FF0E086E0989FE00DF11D6A
:100CC00011249E2F977083E0F695E7958A95E1F7BA
:100CD000EE0FFF1FEE0FFF1FE553F94F40E050E00E
:100CE00080E0219130E0092E02C0369527950A94C4
:100CF000E2F721703327042E01C0220F0A94EAF78D
:100D0000822B4F5F5F4F4430510559F720E030E0B0
:100D100040E050E090E0E0E0F0E0089580E020E086
:100D200030E040E050E090E0E0E0F0E008958091B5
:100D300000079091FF06981303C080E090E00895AB
:100D40008F5F8770F8CF9091FB0680958923809301
:100D5000FB06282F277021110DC0891759F090919B
:100D6000FD0692FF07C08695869586950E94FF0531
:100D70001092FB0620E080E090E008958091F40658
:100D80009091FE06892B5091F506511591F09091A6
:100D90005501913021F49091FC0697FD13C096E027
:100DA00028E032E040E0915088F441111092F506BD
:100DB000852B20E030E040E050E060E090E0E0E0B3
:100DC000F0E008959EE120E132E0ECCFF90161917D
:100DD0009F01611541F34F5FE6CF982F9095809169
:100DE000F40689238093F40680E090E0089578303B
:100DF000D8F46630C8F48430F0F4E62FF0E096E0E2
:100E0000799FE00DF11D112490E3899FE00DF11D04
:100E10001124EE0FFF1FE154F64F8591959160E08C
:100E200070E0E0E0F0E0089580E090E060E070E0E5
:100E3000E0E0F0E0089581E0F8CF9C01803E91056C
:100E400009F44AC0E8F48133910509F47FC058F4ED
:100E50008932910509F46FC08A9709F47EC0C901EF
:100E600020E030E008958933910551F182389105F1
:100E700039F1C597A1F78091FC0685FFF0CF29C015
:100E8000843E910509F447C048F4823E910599F1EA
:100E9000833E9105A9F121EE30E0E1CF863E910538
:100EA00009F444C0873E9105D1F68091FC0683FD8C
:100EB00061C09091FD0691FF2BC024EE30E0CFCFB2
:100EC0008091FC068370811152C08091FD0683FFE2
:100ED000C6CF29E230E0C3CF8091FC0680FD33C04D
:100EE0009091FD0690FFBBCF23EE30E084FFB7CF9B
:100EF00020E030E0B4CF8091FC0682FDF5CFAFCF8B
:100F00008091FC0682FD30C09091FD0690FD2FC0BF
:100F100084FFA5CFEDCF8091FD0681FFA0CF80910A
:100F2000FC0627EE30E084FDE3CF99CF8091FC06EC
:100F300083FDF7CF94CF8091FC0685FD1EC0809184
:100F4000FD0683FF8CCF29E330E089CF8091FC063A
:100F500086FF85CF2AE230E082CF8091FC0686FFB3
:100F60007ECF21E330E07BCF22EE30E078CF20EE61
:100F700030E075CF26EE30E072CF25E330E06FCF62
:100F80009091FC0692FF10C041E0282F247124307C
:100F900009F040E031E0282F2871283009F030E0D6
:100FA000431711F02CE0822793FF10C041E0282F57
:100FB0002471243109F040E031E0282F28712831D4
:100FC00009F030E0431711F02CE082273091FD0644
:100FD00030FF10C051E0282F2171213009F050E07E
:100FE00041E0282F2871283009F040E0541711F013
:100FF00029E0822731FF10C041E0282F21712131E3
:1010000009F040E031E0282F2871283109F030E064
:10101000431711F029E0822794FD877E20E030E01D
:1010200040E050E090E008951F93CF93DF930E943B
:101030001D07EC01811522E5920708F05AC08115C1
:1010400040E5940708F0D6C0803E910520F58D3C20
:10105000910508F0A9C0883A910570F4853A910588
:1010600008F09FC081309105D1F10497813A910534
:10107000B0F1C0E0D0E033C0885A91094B97C8F76F
:10108000C85AD0E0CC0FDD1FC956DE4F0990D88179
:10109000C02DD46424C0811550E49507C0F4C11557
:1010A00080E2D80708F0BCC0C83ED105C0F0CE0130
:1010B0009A9581159F41E8F68D2F0E94C007182F41
:1010C000CE0199270E941D07EC01D12B08C099275A
:1010D0000E941D07CC27DF70C82BD92BD06ACE0108
:1010E000DF91CF911F9120E030E040E050E060E0E0
:1010F0000895803842E59407C8F5803652E5950793
:1011000008F05BC0C03482E5D807D0F4C03292E565
:10111000D90708F04BC08C2F8695869520E2829FD8
:10112000C0011124C37021E030E0A90102C0440FC6
:10113000551FCA95E2F7EA01C82BD92BDD68CFCF3E
:101140008C2F86958695877050E2859FC00111246B
:10115000C37021E030E0A90102C0440F551FCA95B9
:10116000E2F7EA01C82BD92BDC68B9CF803C52E505
:10117000950758F48F71C03AD245A0F590E0982FAA
:101180008827EC01C46FD06AAACF805C9245809713
:1011900008F06FCFDC2FCC27CC27DF71C06FD06A6F
:1011A0009ECFA497D0649BCFD06599CFCF71D0E06C
:1011B000DC2FCC27C16FD06A92CF86958695877039
:1011C00020E2829FC0011124C37021E030E0A90118
:1011D00002C0440F551FCA95E2F7EA01C82BD92B6C
:1011E000DA687DCF0E94C007C82FD0E0DC2FCC2763
:1011F000D06275CF8F710E94C00793E0CC0FDD1FC6
:101200009A95E1F7CC27DF70282F30E084FF04C0E7
:1012100050E1859F90011124C22BD32BD0695FCF61
:101220008D2F8F710E94C007182FCE0199270E9421
:101230001D07EC01D12BDCCFA0E0B0E0E2E2F9E049
:101240000C94B72F8C01E090F906F090FA0680918B
:10125000F7069091F806E82AF92ACFE0D0E0CC24EE
:10126000C394D12CC6010C2E02C0880F991F0A947A
:10127000E2F78E219F21892B49F4219798F7B12C11
:101280008B2DCDB7DEB7E9E00C94D32FBC2EB8017F
:101290008C2F0E94F7060E941408019771F3F0CF7B
:1012A0000F931F93CF93FC018581008111818115DC
:1012B000B1F06115A1F0C8010E941C09C82F682F68
:1012C000C8010E941506B8018C2F0E94F706CF9125
:1012D0001F910F9160E070E0E0E0F0E00895C80138
:1012E0000E945606C82FEFCFCF93DF93D82FC92F78
:1012F0000E941C096D2F7C2F0E94F7060E94140883
:10130000DF91CF9160E070E00895FC018481811548
:10131000A1F0808191810E947409282F92959F707D
:101320009630D9F080F4925F9F70923030F4203F75
:1013300011F158F481E0283E58F080E020E090E080
:10134000E0E0F0E008959A5FEFCF81E0243FA9F755
:1013500020E090E0E0E0F0E0089591E0213F09F026
:1013600090E081E0283E08F080E0892B20E090E0CA
:10137000E0E0F0E0089581E020E090E0E0E0F0E0DF
:10138000089580E00895F894E82FE295EF70F0E07A
:1013900041A18F7021E030E0B90102C0660F771FD4
:1013A0008A95E2F7CB01962F9095942391A392A171
:1013B000892B82A3789420E030E040E060E070E088
:1013C00080E090E0E0E0F0E008950895A0E0B0E073
:1013D000ECEEF9E00C94B92F362FD72EE82FF0E081
:1013E000E95EF74F711109C0E4918E2F7E2F6E2FA9
:1013F000CDB7DEB7E7E00C94D52FE72EF12CF491B2
:10140000EF2F66E0369F80011124CFEFD0E0C801B6
:10141000BE010E949A2FAB01232F220F230F220F10
:10142000260FCE018E199F09F89FD001F99FB00DAC
:1014300011248B2FD29EB0011124672F77277E01B4
:10144000E61AF70AB701F69F7001F79FF00C112416
:10145000BE01621B71099B01D29EB001D39E700D2B
:101460001124672F7727C61BD70BFC9F9001FD9F88
:10147000300D1124732F43305105C9F00C3F93E018
:10148000190758F441305105B1F04230510509F0C7
:10149000AECFEB2F832F7F2FAACF4430510571F0B1
:1014A0004630510509F4A3CF7B2F8F2DA0CF7F2D80
:1014B000EB2F8F2F9CCF7F2FEF2D99CFE32F7B2FFB
:1014C000F8CFCF93982F762F842FC22F692F0E94A9
:1014D000E609472F282F80911201C81B8C2F90E01E
:1014E0000E946D0DCF9120E040E060E070E080E070
:1014F00090E008958091EC06843068F483708460F5
:101500008093EC068091EF06833318F082E380939A
:10151000EF0680E008958C3AA8F38370886AF0CFD4
:10152000CF938091EC0680FF09C00E946E10CF918E
:1015300020E040E060E080E090E00895C091140178
:1015400080911501C81788F7809112019C2F981B74
:10155000892F20E040E060E090E00E946D0DCF5FB9
:10156000EFCF0F931F93CF93DF93D82F162F042F16
:101570008091EC06C091140180FD16C0DF91CF91DF
:101580001F910F9120E040E060E080E090E008953E
:10159000809112019C2F981B892F202F412F6D2F96
:1015A00090E00E946D0DCF5F80911501C81780F308
:1015B0000E94900AE3CF982F762F842F2091EC067B
:1015C00020FF0CC0433308F082E3692F0E94E60934
:1015D000962F672F482F892F0E94B10A20E040E004
:1015E00060E070E080E090E00895CF93DF93EC013D
:1015F000ECEEF6E0438162818C810E94DB0A8C81F3
:101600008F5F8C83DF91CF9140E060E080E090E0DD
:10161000E0E0F0E00895E9EEF6E011828281846076
:10162000828380E0E0E0F0E00895CF93DF93EC0167
:10163000EC81F0E0EE5EF84F4491ECEEF6E0628172
:1016400081810E94DB0A8C818F5F8C83DF91CF9137
:1016500040E060E080E090E0E0E0F0E00895EF92AC
:10166000FF921F93CF93DF93EC0110E0EE24EA94F6
:10167000F12C609116011617C0F00E94900A8C811F
:101680009A8190FF2BC08F5F8C83DF91CF911F9148
:10169000FF90EF9020E030E040E050E060E070E04C
:1016A00080E090E0A0E0B0E0089520911401210FC7
:1016B0003327331F4091EF06433308F042E370E0D5
:1016C000C7010E94FF2F962F8C816091EE06199F13
:1016D000800D11240E94610A1F5FCBCF8150D4CFAF
:1016E000A0E0B0E0E6E7FBE00C94B72FEC018A81C4
:1016F000CC24C39480FF02C0CC24CA948C81811175
:101700000AC081E0C81223C08091160181508093E5
:101710000D0481E08C83D12C80911601D816C8F07D
:101720000E94900A90910D0481E0C81255C08091EA
:1017300016018150911519F08FEF890F91E0809378
:101740000D049C83CDB7DEB7E9E00C94D32F80E085
:10175000DECF8091140190911201891B8D0D20E044
:1017600040E060E090E00E946D0D04E010E0B12CDC
:10177000ED2CF12C80910D048B0D87333CF166E349
:101780000E94F12F892F082E001C00088E150F04CF
:10179000B9F4809114019701280F311D4091EF0693
:1017A0000403A0011124559547955595479543335A
:1017B00008F042E36091EE068091ED060E94610A16
:1017C000BC0C01501040B1F6D394A6CF87FFDBCFFD
:1017D00090911601890FD7CF892F90E001966091E3
:1017E000160170E00E94FF2F982FA9CF1F93CF936F
:1017F000DF93EC018C81811109C081E08C83109210
:101800000C0492E09093060180930501109114015D
:10181000809115011817A8F110E0609116011617B4
:10182000E8F10E94900A8091050190910C04980FB4
:1018300090930C0420910601280F209306011216A4
:1018400054F4209116012150330B092E001C00087E
:101850009217030634F0819580930501813009F4D5
:101860001C82DF91CF911F9120E030E040E050E0FA
:1018700060E070E080E090E0A0E0B0E0E0E0F0E068
:10188000089580911201912F981B892F20E040E04C
:1018900060E090E00E946D0D1F5FBACFE12FF0E095
:1018A00070E0CF010E94FF2F20911401820F9091D0
:1018B0000C04092E001C0008E917F005BCF09091FB
:1018C0000601092E001C00089E170F067CF0282F29
:1018D00030E04091EF06433308F042E36091EE06BA
:1018E0008091ED060E94610A1F5F97CF90911201CF
:1018F000891B20E040E060E090E00E946D0DF4CF95
:10190000A6E0B0E0E6E8FCE00C94B82F8D839E835F
:10191000AD81BE811496FC912F2F30E0D9010E9439
:10192000A0319B01AC010E946B316B017C0180E214
:1019300090E09C012F1B3109F901A5E5B0E0A7015A
:1019400096010E946B3169837A838B839C839F010C
:10195000DF010E9419309B010E9421309B01AC01E4
:101960002C0D3D1D4E1D5F1D69817A818B819C81EF
:101970000E947E31422F022F822F90E09C014A323A
:1019800040F5220F331F280F391F35952795122F49
:101990001095F12C85E5E82EE41A80911601F816D1
:1019A00030F10E94900AAD81BE8114969C9181E035
:1019B000911519F0903219F48FEF80930401809102
:1019C0000401890FED81FE8184832696E8E00C9462
:1019D000D42F220F331F220F331F821B930B9C0126
:1019E00021503F4F37FFD1CF2F5F3F4FCECF8E2DAE
:1019F000F1FC802F209114012F0D3327331F412F2D
:101A0000133308F042E36091EE060E94610AF394FA
:101A1000C4CFCF93DF93EC012091EF069C81892FF7
:101A2000817090FD822F692F627091FD622F492F86
:101A3000447092FD422F0E94B10A8C8190E0019681
:101A4000877099278C83DF91CF9120E040E060E0A0
:101A500080E090E008950F931F93CF93DF938C0164
:101A6000C0E0D0E090911601C917D105B4F00E94F2
:101A7000900AF801848190E001968170992784830F
:101A8000DF91CF911F910F9120E030E040E060E0C6
:101A900080E090E0E0E0F0E00895F801448180917A
:101AA00014019E01280F311D6091EE068091ED0614
:101AB0009695C917D1055CF4411559F04091EF0690
:101AC000433308F042E30E94610A2196CBCF4115CF
:101AD000A9F340E0F8CF539A0895FC01EE0FFF1FE1
:101AE000E80FF91FE45AFD4F61834083228320E011
:101AF00030E040E060E080E090E0E0E0F0E0089579
:101B000080919D06811569F0E091C106F091C206B1
:101B1000309739F00190F081E02D0995E0E0F0E098
:101B2000089580E0E0E0F0E00895A3E0B0E0EBE9A4
:101B3000FDE00C94BE2F9C0180915A0290915B02B3
:101B400082179307A1F030935B0220935A02E09131
:101B5000C106F091C206309751F083E089833B8340
:101B60002A830084F185E02DCE0101960995239604
:101B7000E2E00C94DA2FA3E0B0E0E1ECFDE00C949D
:101B8000BE2F9C01809158029091590282179307B1
:101B9000A1F03093590220935802E091C106F091D0
:101BA000C206309751F084E089833B832A83008406
:101BB000F185E02DCE01019609952396E2E00C9483
:101BC000DA2F909155019130D1F0A8E0B2E0EFEF1B
:101BD00090E02D91821751F0EF3F19F4211101C0CF
:101BE000E92F9F5F9630A9F7EF3F49F520E030E0FD
:101BF00080E090E0A0E0B0E0E0E0F0E008959091B7
:101C0000FC0697FFE2CFE82FE695E695E695803F44
:101C100068F7F0E0E25FFD4F877021E030E001C03F
:101C2000220F8A95EAF78281822B828320E030E0BE
:101C300080E090E0A0E0B0E0E0E0F0E008950E2E5B
:101C4000000CFF0BEA5FFD4FF0CF909155019130F2
:101C500021F49091FC0697FD16C0E8E0F2E0919126
:101C6000891302C0DF011E9252E0EE30F507B9F78A
:101C700020E030E040E050E080E090E0A0E0B0E024
:101C8000E0E0F0E00895E82FE695E695E695803FE0
:101C900078F7F0E0E25FFD4F877021E030E0A901C6
:101CA00002C0440F551F8A95E2F7CA0180959281C0
:101CB0008923828320E030E040E050E080E090E043
:101CC000A0E0B0E0E0E0F0E00895809154010895D4
:101CD0002FB7F8946091540270915502809156028A
:101CE000909157022FBF20E00895CF92DF92EF929C
:101CF000FF9280919D06811559F00E94680E6B013C
:101D00007C01C701B601FF90EF90DF90CF9008955E
:101D10000E94680EC0909906D0909A06E0909B06AB
:101D2000F0909C06C60ED71EE81EF91EEACF87E784
:101D300097E7909301088093000888E19AE00FB636
:101D4000F894A895809360000FBE90936000FFCF39
:101D50000895FC019B0180914A0290914B028617E5
:101D6000970740F0672B29F48091E8008E778093E5
:101D7000E800C90140E0009781F441110EC0809154
:101D8000E80082FF38C080E020E030E040E060E022
:101D900070E090E0E0E0F0E0089520911B04211550
:101DA000F1F1253009F445C02091E80023FD2DC054
:101DB0002091E80022FDE3CF2091E80020FFDBCF57
:101DC0003091F3002091F200009719F0283031058E
:101DD00058F041E02830310509F040E02091E8005A
:101DE0002E772093E800C7CF41914093F1000197EF
:101DF0002F5F3F4FE9CF80911B04811581F0853023
:101E0000C1F08091E80083FFBACF81E020E030E0AC
:101E100040E060E070E090E0E0E0F0E0089582E013
:101E200020E030E040E060E070E090E0E0E0F0E0F2
:101E3000089583E020E030E040E060E070E090E072
:101E4000E0E0F0E008958091440287FF15C08091A2
:101E5000E80082FF07C08091E8008B778093E8005C
:101E600080E0089580911B048111F1CF80E00895F6
:101E700080911B048115D1F38091E80080FFF8CF99
:101E80008091E8008E77EACF2091E4003091E50060
:101E900095E6A9012091EC00822F817020FF0BC0F4
:101EA0008091E80080FF0BC080E020E030E040E05F
:101EB00050E090E008952091E80022FD29C0809133
:101EC0001B048115B1F08530D9F08091EB0085FDC0
:101ED0001EC02091E4003091E50042175307D1F273
:101EE0009A95B9F684E020E030E040E050E090E0E0
:101EF000089582E020E030E040E050E090E0089576
:101F000083E020E030E040E050E090E0089581E0A0
:101F100020E030E040E050E090E00895E8EDF0E0AF
:101F200080818E7F80831092E2001092DA001092FE
:101F3000E100A0EEB0E08C9181608C9380818F777E
:101F4000808319BCA7EDB0E08C918E7F8C9380814B
:101F50008F7E80831092430280E0A0E0B0E0E0E05A
:101F6000F0E00895FC01AC014C5F5F4F8FEF61E33F
:101F70009191892728E030E0982F990F87FF11C0B1
:101F8000892F862721503040B9F7E417F50781F7EC
:101F900020E030E040E050E060E090E0E0E0F0E0A1
:101FA0000895892FEFCF982F9093E9008917B1F00A
:101FB0007091EC002091ED005091F00021FD11C0D6
:101FC0009F5F973089F78093E90020E030E040E0A0
:101FD00050E060E070E080E090E00895762F242FDC
:101FE00050E03091EB003E7F3093EB003091ED00FC
:101FF0003D7F3093ED003091EB0031603093EB008A
:102000007093EC002093ED005093F0002091EE00CF
:1020100027FDD6CF20E030E040E050E060E070E007
:1020200080E090E00895A0E0B0E0E9E1F0E10C94F8
:10203000B82FC8EDD0E088818F7E8883E7EDF0E08F
:1020400080818160808384E082BF81E0809343024D
:1020500088818E7F888302EE10E0F8011082109252
:10206000DA0081EEC82ED12CF601108288818F779C
:10207000888388818068888388818F7D888319BC64
:1020800010921B041092420210921A041092410204
:1020900090EEE92EF12CF70180818B7F808388817F
:1020A0008160888342E060E080E00E94D30FF60107
:1020B00080818E7F8083F801808181608083808130
:1020C00088608083F70180818E7F80838881806132
:1020D0008883CDB7DEB7E8E00C94D42F3BB1377FCF
:1020E0002BB128604FB7F8948CE592E0FC01019683
:1020F000508168E02BB9000000C057FF3BB9550F75
:10210000000000C000C000C03BB900C06A9591F754
:1021100052E08E3F950751F74FBF8FE594E001974E
:10212000F1F700C0000020E030E040E050E060E067
:1021300080E090E0E0E0F0E008950F931F93CF93EC
:10214000DF938B01EA0190911B04943059F5809341
:10215000E9008FEF9091E80095FD06C095ED9A9506
:10216000F1F700008A95B1F78091E80085FF1AC069
:102170000E94440F811111C08091E80085FD06C0C6
:102180008091E8008E778093E800F2CFF80181918A
:102190008F018093F100219779F78091E8008E7785
:1021A0008093E800DF91CF911F910F9140E050E0C4
:1021B00060E070E080E090E0E0E0F0E00895CF9330
:1021C000DF93D82FC92F48E050E0682F792F81E0A6
:1021D0000E949D1088E0ED2FFC2FACE4B2E001904E
:1021E0000D928A95E1F7DF91CF9140E050E060E0F9
:1021F00070E080E090E0A0E0B0E0E0E0F0E0089582
:10220000BC0140E250E082E00E949D1040E050E0BE
:1022100060E070E080E090E00895BC0143E050E0B1
:1022200082E00E949D1040E050E060E070E080E0BD
:1022300090E00895A0E0B0E0E0E2F1E10C94B62F68
:10224000182F092FB62EA72E7A01809138029AE016
:10225000C92ED12C8A3018F0CC24C394D12CC1E0E3
:10226000D0E06B2D7A2D812F902FF70109958111E8
:1022700016C02196CC16DD0694F0CC9FC001CD9FF0
:10228000900D900D112420E030E045E34A95F1F7E0
:1022900000002F5F3F4F28173907BCF3E2CFCDB7BF
:1022A000DEB7EAE00C94D22F9091FD0692FB222734
:1022B00020F9281779F080FB92F99093FD06609140
:1022C000FC067091FD0684E090E00E94363182E0C9
:1022D0000E94A30620E060E070E080E090E00895B6
:1022E000809155018130A9F58091FC0687FF31C0AE
:1022F0000E94BE0680930F0240E250E061EA76E061
:102300008EE092E00E94DE30892BC1F080E2EEE0A8
:10231000F2E0A1EAB6E001900D928A95E1F7E09132
:10232000C106F091C206309749F086E080930E0214
:102330000480F581E02D8EE092E0099540E050E0C8
:1023400060E070E080E090E0A0E0B0E0E0E0F0E08D
:1023500008950E94BE068093060248E050E063ECB8
:1023600076E086E092E00E94DE30892B39F388E047
:10237000E6E0F2E0A3ECB6E001900D928A95E1F779
:10238000E091C106F091C2063097C1F20280F3815C
:10239000E02D86E092E0D1CFCF93C82F8115D1F008
:1023A0008CEF8C0F813AD8F580915501813021F462
:1023B0008091FC0687FD17C0E8E0F2E08191C81724
:1023C00041F122E0EE30F207C9F78C2F0E94E10DB7
:1023D0000E947011CF9120E030E040E080E090E07A
:1023E000E0E0F0E00895EC2FE695E695E695F0E064
:1023F000E25FFD4F828190E04C2F477021E030E09A
:1024000002C0220F331F4A95E2F782239323892BC0
:10241000E1F28C2F0E94250E0E947011D6CF80E22F
:102420008C0F883068F4C77081E090E001C0880F9D
:10243000CA95EAF7C091F406C82BC093F406C8CF3A
:102440008BE58C0F833038F42C2F2452330BC901C9
:102450000E94950DBFCFC85ACB3108F0BBCFEC2FEF
:10246000F0E0EE0FFF1FE353FE4F808191810E9449
:10247000BB0DB0CF811559F19CEF980F913A38F40C
:102480000E94250E0E94701180E090E0089590E275
:10249000980F983050F4877091E001C0990F8A9599
:1024A000EAF7892F0E94ED06EDCF9BE5980F933058
:1024B00038F480E090E00E94950D80E090E008956F
:1024C000885A8B3120F480E090E00E94BB0D80E0C0
:1024D00090E00895811539F09091F406892B80934E
:1024E000F4060E94701180E090E00895811521F0BB
:1024F0000E94ED060E94701180E008951092F4068B
:10250000809155018130F1F48091FC0687FF1AC05B
:10251000E0E1F2E08EE1DF011D928A95E9F780E0CB
:1025200090E00E94950D80E090E00E94BB0D10921B
:10253000FE060E94701180E090E0A0E0B0E0E0E0D4
:10254000F0E00895E8E0F2E086E0E5CF0E947E1238
:102550002FEF84E39CE0215080409040E1F700C0E1
:10256000000088E19AE00FB6F894A8958093600087
:102570000FBE90936000FFCFAAE2B0E0E2ECF2E180
:102580000C94BD2F84E492E0FC0101962091F100AF
:10259000208322E08C349207B9F78091450289307C
:1025A00009F45AC0C8F4823009F4B6C0833009F483
:1025B00085C0813091F18091E80083FFEAC080916D
:1025C0004402909145029A3008F0E3C0E92FF0E010
:1025D000EF54FE4C0C9413308A3009F48CC08B30CD
:1025E00051F780914402813231F7809148029091F5
:1025F0004902892B01F78091E800877F8093E800EA
:102600000E94230F81E090914602911101C080E069
:10261000809355010E947E12CECF80914402813A70
:1026200051F68091E800877F8093E800809148020E
:1026300090914902892B61F060E080E090E070E0C9
:102640000E94A90E8091E8008B778093E800B3CFB9
:1026500068E08CE492E0F3CF80914402813209F08B
:10266000AACF8091480290914902029708F0A3CF27
:102670008091E800877F8093E8008091E80082FFE6
:1026800018C09091F3008091F200029731F480918C
:10269000F100813011F0863021F48091F1008093B7
:1026A00054018091E8008B778093E8000E94230F0B
:1026B00082CF80911B048111E0CF7DCF80914402B5
:1026C000813A09F078CF8091480290914902892B94
:1026D00009F071CF8091E800877F8093E8008091B6
:1026E000E80080FFFCCF809155018093F10080913C
:1026F000E8008E77D9CF80914402813209F05BCF18
:102700008091E800877F8093E8000E94230F8091EA
:102710004702809353014FCF80914402813A09F0E0
:102720004ACF8091E800877F8093E8008091E8009D
:1027300080FFFCCF80915301D8CF803889F0823858
:1027400041F5809148028F70873018F58093E90039
:102750008091EB0085FB882780F91092E90006C084
:1027600080911A04880F90914102892B9091E80082
:10277000977F9093E8008093F1001092F100809190
:10278000E8008E7723C0811116C080914602813007
:1027900011F18091E80083FF0AC08091E800877FF3
:1027A0008093E8008091EB0080628093EB00AA9612
:1027B000E3E00C94D92F823061F7809146028115B5
:1027C00089F01092E9008091E800877F8093E8000B
:1027D0000E94230FDECF81E0933009F080E08093E8
:1027E0001A04EFCF809148028F702FEF280F263008
:1027F00080F68093E9002091EB0020FFE2CF933038
:1028000031F48091EB0080628093EB00DACF9091FD
:10281000EB0090619093EB0021E030E0A90102C051
:10282000440F551F8A95E2F74093EA001092EA00A0
:102830008091EB008860E8CF8111ABCF1091460208
:102840001F778091E3008078812B8093E300809153
:10285000E800877F8093E8000E94230F8091E800C2
:1028600080FFFCCF8091E30080688093E30083E0E9
:10287000111101C082E080931B048BCF80588230FD
:1028800008F087CF20914602309147022C3D53E05B
:10289000350799F583E08A838AE289834FB7F894F4
:1028A000DE01139620E03EE051E2E32FF0E050938A
:1028B0005700849120FF03C082958F703F5F8F7017
:1028C0008A30C8F0895C90E08D939D932F5F24310E
:1028D00061F74FBF8091E800877F8093E8006AE24C
:1028E00070E0CE0101960E94A90E8091E8008B77DE
:1028F0008093E8004ECF805DE6CF832F9927833009
:10290000910529F160F48130910509F475C00297B1
:1029100009F03FCF8BE390E0E1EAF6E02CC0209194
:102920004802309149028132910509F459C08297D9
:1029300009F02FCF2115310509F468C02130310588
:1029400009F027CF8DE690E0E0EFF5E014C0C90173
:1029500099272130A9F182309105D1F1892B09F015
:1029600018CFEEE0F7E0E4918E2F90E0EEE0F7E094
:10297000009709F40ECF2091E800277F2093E8000C
:1029800020914A0230914B028217930708F49C0170
:1029900040E02115310509F03EC041113CC0809155
:1029A000E80082FDA2CF80911B04811509F49DCF20
:1029B000853009F49ACF8091E80083FFF0CF95CF5E
:1029C000ECEFF6E0E4918E2F90E0ECEFF6E0D0CF64
:1029D000EEEEF6E0E4918E2F90E0EEEEF6E0C8CF5A
:1029E0002115310571F02130310509F0D2CE89E091
:1029F00090E0ECECF6E0BFCF82E190E0ECEDF6E0A9
:102A0000BACF89E090E0E3EBF6E0B5CF84E490E064
:102A1000EDE5F6E0B0CF80911B04811509F465CF98
:102A2000853009F462CF8091E80083FD5ECF80910C
:102A3000E80082FDB4CF8091E80080FFAACF90919A
:102A4000F3008091F2002115310519F088309105CD
:102A500050F041E0089709F040E08091E8008E775F
:102A60008093E80096CF44914093F1003196215035
:102A700031090196E8CF803809F08BCE8091E800CB
:102A8000877F8093E800809142028093F10077CEA7
:102A900081117FCE10914602123008F07ACE8091DB
:102AA000E800877F8093E800109342020E94230F82
:102AB0001115A9F084E080931B0442E061EC81E0F1
:102AC0000E94D30F42E261EC82E00E94D30F80911A
:102AD0001B04843051F482E0809356015ACE8091D9
:102AE000E30087FDE7CF81E0E6CF81E0F5CFCF922D
:102AF000DF92EF92FF921F93CF93DF9300D000D02D
:102B0000CDB7DEB7C0907106D0907206E090730624
:102B1000F09074060E94680E6C197D098E099F0959
:102B200011E0643671058105910578F10E94750EFA
:102B3000DC01CB010296A11DB11D89839A83AB8371
:102B4000BC8380914401909145018F57994F20910A
:102B50004301422F50E0253010F044E050E0BE0128
:102B60006F5F7F4F0E94EB3083E090E00E94202F48
:102B7000182F811551F00E94680E609371067093B2
:102B800072068093730690937406812F0F900F90B6
:102B90000F900F90DF91CF911F91FF90EF90DF90FA
:102BA000CF9020E040E050E060E070E090E0A0E0F6
:102BB000B0E008954F925F926F927F92AF92BF9272
:102BC000CF92DF92EF92FF920F931F93CF93DF93F9
:102BD000C82F7B01A42EB22ED32F6801FB014080A9
:102BE0005180628073800E94680E6419750986099D
:102BF0009709643671058105910510F4A11429F136
:102C00000C2F0C2E000C110B88E0C802F0011124CF
:102C1000E55DFE4F818192818F57994F2081422F30
:102C200050E0C216D10408F4A6016B2D7D2F0E943E
:102C3000EB30C8010E94202F811541F00E94680EE0
:102C4000F701608371838283938381E0DF91CF9169
:102C50001F910F91FF90EF90DF90CF90BF90AF90BA
:102C60007F906F905F904F9020E030E040E050E028
:102C700060E070E090E0E0E0F0E008950F931F93D3
:102C8000CF93DF93D82FC92F44E050E066E876E079
:102C90000E94DE3041E0892B09F440E004E010E0BE
:102CA0002D2F3C2F65E776E082E00E94DA15DF9158
:102CB000CF911F910F9120E030E040E050E060E0C4
:102CC00070E090E00895ABE0B0E0E9E6F6E10C9446
:102CD000BC2F28E0ECEEF6E0CE010196DC0101907D
:102CE0000D922A95E1F73091E9062091EA0650917C
:102CF000EB0639872A875B8741E09C01511101C0AF
:102D000040E00BE010E06DE676E084E00E94DA152A
:102D100081111092EB062B96E4E00C94D82F8F9241
:102D20009F92AF92BF92EF92FF921F93CF93DF9348
:102D300000D000D00F92CDB7DEB77B0180E090E0ED
:102D40000E94202F182F811509F464C080912E0154
:102D5000482F50E0811511F041E050E060912F01C3
:102D6000709130016F57794FCE0105960E94EB307C
:102D700080907D0690907E06A0907F06B0908006A1
:102D80000E94680E681979098A099B0964367105E1
:102D90008105910538F482E896E00E94B20F9D818A
:102DA0008917C1F181E090E00E94202F811509F47C
:102DB0003FC080913601482F50E0853010F044E04C
:102DC00050E060913701709138016F57794FCE0113
:102DD00001960E94EB3082E896E00E94B20F9D813E
:102DE000891326C00E94680E60937D0670937E064C
:102DF00080937F069093800689819A81AB81BC8104
:102E00008093790690937A06A0937B06B0937C0614
:102E100081E00FC08091820690918306A091840684
:102E2000B091850689839A83AB83BC831111E4CF6B
:102E300080E04091790650917A0660917B0670910E
:102E40007C06F70140835183628373830F900F9058
:102E50000F900F900F90DF91CF911F91FF90EF9007
:102E6000BF90AF909F908F9040E050E060E070E0A6
:102E700090E0A0E0B0E0E0E0F0E00895A0E0B0E095
:102E8000E4E4F7E10C94B02FFC016280448081E01F
:102E90008483E2E1F7E07490E1E9F7E0E491C09126
:102EA000EF06C695C158D0E0CC0FDD1FCD2FDD2732
:102EB000812C25E0922EAA24AA94B12C55245A9450
:102EC000E719EE2EF12C80911601881638F00E9439
:102ED000900ACDB7DEB7E0E10C94CC2FC82CD12CF2
:102EE00083E0681658F4989CF0011124E250FD4FDD
:102EF0008091ED0680838091EE068183411026C08B
:102F00009C9CF0019D9CF00D1124E250FD4F13821A
:102F10001282809114019601280F311D9C9CF001B2
:102F20009D9CF00D1124E250FD4F4281433308F087
:102F300042E39C9CF0019D9CF00D1124E250FD4F5A
:102F4000618180810E94610A8394BDCF9C9C800135
:102F50009D9C100D112402501D4FF8018381811595
:102F6000F1F081508383589EC0011124648170E088
:102F70000E949A2FFB01FF27EE5EF84F8491E82F05
:102F8000E7195E9EC0011124B7010E949A2F80911B
:102F9000EF06689FB0011124F8017283BACF0E9436
:102FA000B430B5010E94FF2F8C179D070CF0B1CFF4
:102FB000F3E06F1698F00E94B430B5010E94FF2F25
:102FC000F80180830E94B4302091EE062695622F8E
:102FD00070E00E94FF2F280FF80121839C9CF001D4
:102FE0009D9CF00D1124E250FD4F12828091EF065E
:102FF000893C58F088EC9C9CF0019D9CF00D1124BC
:10300000E250FD4F8483838384CF8431A0F784E131
:10301000F2CFA0E0B0E0EFE0F8E10C94B82F890126
:10302000D42FC52F6B017C010E947A0AA8016D2F55
:103030007C2F88E090E00E942A3198014D2F5C2F70
:10304000B601C70100E20E944330622F83E290E0A4
:103050000E941831CDB7DEB7E8E00C94D42F8091F0
:10306000F006833018F48F5F8093F0062091EC0611
:103070003091ED064091EE065091EF066091F0061A
:103080007091F1068091F2069091F3060E94091862
:1030900020E030E040E050E060E070E080E090E070
:1030A00008958091F006811519F081508093F00603
:1030B0002091EC063091ED064091EE065091EF061E
:1030C0006091F0067091F1068091F2069091F306FE
:1030D0000E94091820E030E040E050E060E070E03D
:1030E00080E090E00895A0E0B0E0E9E7F8E10C941A
:1030F000B92F182F062FD42FE22E9091EC0690FFB7
:1031000043C03091ED06381308C08091EE06861357
:1031100004C08091EF06841729F08091EB0682604D
:103120008093EB06E92FE695E695AE2FB0E0A85A1E
:10313000BE4F8C918093E9069C7F943051F58D2F82
:10314000D33308F082E3612F702F0E94E609962F97
:10315000672F482F892F0E94B10A312F3093ED0637
:103160000093EE06D093EF06E11471F02091EC0687
:103170006091F0067091F106402F5D2F8091F2066C
:103180009091F3060E940918CDB7DEB7E7E00C94E2
:10319000D52F823019F4D091EF06DFCF8630F1F2CF
:1031A0008930E1F28931C9F6E9518E2F8170D82E2C
:1031B000E695F0E0EE5EF74FC491F12C60911601B8
:1031C000F61618F00E94900AC8CFFC9EC001112488
:1031D00070E00E949A2F812FD1100FC0860F20918E
:1031E00014012F0D3327331F4D2FD33308F042E343
:1031F000602F0E94610AF394E1CF861BF0CFECEEC2
:10320000F6E0818121E043816281885F0E9473182A
:1032100020E040E060E080E0E0E0F0E00895ECEEE7
:10322000F6E0818121E04381628188500E94731819
:1032300020E040E060E080E0E0E0F0E00895ECEEC7
:10324000F6E0628121E1620F08F46FEF21E0438133
:1032500081810E94731820E040E060E080E0E0E0BF
:10326000F0E00895ECEEF6E0628121E1621B08F4E3
:1032700060E021E0438181810E94731820E040E0FA
:1032800060E080E0E0E0F0E00895ECEEF6E04381FD
:1032900021E1420F08F44FEF21E0628181810E9419
:1032A000731820E040E060E080E0E0E0F0E00895A6
:1032B000ECEEF6E0438121E1421B08F440E021E01E
:1032C000628181810E94731820E040E060E080E02C
:1032D000E0E0F0E00895AB0124E630E0BC0188E7CF
:1032E0000E942B2D9C0181E0232B09F080E020E03F
:1032F00030E040E050E060E070E090E008958091C0
:103300006B06811569F080916806811549F062E0CD
:1033100070E08EEA90E00E946B19811110926806AD
:1033200060E070E080E090E0089580916B06811588
:10333000F9F00E94680EDC01CB01805A9541AF4F35
:10334000BF4F8093640690936506A0936606B09382
:1033500067068091680681110BC062E070E08CEA1C
:1033600090E00E946B19811519F081E08093680646
:1033700060E070E080E090E0A0E0B0E00895CF93DE
:10338000DF93682F81E06A3019F06D3091F480E0AE
:103390000E944B1ADF91CF9120E030E040E050E0F6
:1033A00060E070E080E090E0A0E0B0E0E0E0F0E01D
:1033B0000895809136049091370426E0FC01ABE338
:1033C000B2E001900D922A95E1F7603E08F458C0F2
:1033D00026E0FC0111922A95E9F7C0913604D091BC
:1033E000370446E050E0BE018BE392E00E94DE30FD
:1033F0009E0120563440892B41F1C90145E0969544
:1034000087954A95E1F741E050E0BA0102C0660FA6
:10341000771F8A95E2F7CB0160916206709163068F
:10342000862B972BB9016B5F7F4FE5E0769567950B
:10343000EA95E1F702C0440F551F6A95E2F7842B25
:10344000952B90936306809362062A5F3F4F4091CD
:103450003804642F70E0C9010E949A2F481B46303F
:1034600010F4240F311D211572E0370710F020E011
:1034700030E0205A3B4F30933704209336048ACFF4
:10348000F6E06F9FB001112460557F4F46E050E099
:103490000E94C830A2CFCF93382FE0913604F0912C
:1034A0003704E056F44020913804622F70E0CF01D9
:1034B0000E949A2F281B822F3115B9F066E00E94D6
:1034C000E52FC82FC15068F4CF9120E030E050E0E4
:1034D00060E070E080E090E0A0E0B0E0E0E0F0E0EC
:1034E000089580E20E94BF19EDCF8E0F9F2F911D8E
:1034F000811522E0920710F080E090E0805A9B4F07
:103500009093370480933604DFCFCF93DF93EC01A1
:10351000FE018491811107C0DF91CF9180E090E09E
:10352000E0E0F0E008950E94BF192196F1CF0E94DB
:10353000851A81E00E944B1A80E090E008951F9266
:103540001FB61F9211248F939F93AF93BF938091C7
:103550001904811113C08091540290915502A091D9
:103560005602B09157024196A11DB11D809354029D
:1035700090935502A0935602B0935702BF91AF911A
:103580009F918F911F901FBE1F9018952FB7F89491
:103590008091540290915502A0915602B091570229
:1035A0002FBF20E0A0E0B0E00895CF93DF9380919B
:1035B0009D06811539F00E94C61ADF91CF9160E017
:1035C00070E008950E94750EEB01862F9D2FF5CFB8
:1035D0006091EC066695669570E04BE050E087E000
:1035E00091E00E94D130892B19F481E08093EA06A2
:1035F0000E94D51A90933104809330048091EB0699
:1036000084608093EB0640E050E060E070E080E092
:1036100090E008959091EC0690FF42C0811509F466
:1036200048C08B3208F047C08F73282F220F220F1B
:103630008091EC068370282B2093EC068091EB069A
:1036400081608093EB06611581F03091ED06409129
:10365000EE065091EF066091F0067091F1068091B0
:10366000F2069091F3060E9409186091EC066695A7
:10367000669570E04BE050E087E091E00E94D13029
:10368000892BD9F00E940B0B81E08093330420E05A
:103690004091EF066091EE068091ED060E9473184E
:1036A00020E030E040E050E060E070E080E090E05A
:1036B000089581E0BACF8AE2B8CF0E94E81AE4CF39
:1036C0008091EC06869586958F5F8B320CF081E0B9
:1036D00061E00E940A1B60E080E008958091EC06A2
:1036E000869586958A9509F48AE261E00E940A1B14
:1036F00060E080E00895CF93DF93EC010E94C61A4A
:103700008C1B9D0BDF91CF910895EF92FF920F9349
:103710001F93CF93DF93C62FD42F122F8115A9F0BB
:103720006093E7060E94C61A90933A02809339028A
:10373000C77081E001C0880FCA95EAF70E946A123B
:10374000CDB7DEB7E6E00C94D62F8091E70668137C
:1037500035C0E0903902F0903A020E94C61A8E19E4
:103760009F098C3D910550F500E20D0FCD17A9F092
:10377000C770FF24F3948F2D01C0880FCA95EAF714
:103780000E947612083048F48D2F877001C0FF0C1C
:103790008A95EAF78F2D0E946A12812F0E94CC1120
:1037A000812F0E943A12083058F6D77081E001C08C
:1037B000880FDA95EAF70E947612C2CFC77081E0CF
:1037C00001C0880FCA95EAF7F6CFA0E0B0E0EBEEB3
:1037D000FBE10C94B82F7C01FC018481811509F474
:1037E00075C061E0C7010E945009EC01F7018581B5
:1037F000811509F47AC491819093E60690819093A3
:10380000E50690E290935701D093E406C093E30657
:103810009E0130522115304220F5F70196819031FA
:1038200028F0FE01FF27ED33F10578F11092E7064D
:103830009E0130572332310508F062C484E090E0E5
:103840000E9402319093FD068093FC06FE01E15038
:10385000F047E232F10508F063C0E554FE4C0C94E9
:1038600013309E01305421153041B8F29E013A9533
:1038700021153F41B0F29E01205A324520323105D8
:10388000A8F2CD33D10530F4FE01E15CF44FE491B0
:10389000E0935701FE01E851FC47E730F10530F6AF
:1038A0002BC426E241EE61EE0E94851B8091FB064F
:1038B0008770811559F0F7018581811539F0809164
:1038C000FD0682FF03C082E00E94A306CDB7DEB7EB
:1038D000E8E00C94D42F27E245EE65EEE5CF26E232
:1038E00041EE60EEE1CF27E245EE64EEDDCF26E269
:1038F00041EE62EED9CF27E245EE66EED5CF28E263
:1039000041E0EBCFC6312CE7D20709F02EC1809100
:10391000E806811509F4BEC085E30E94250E04C4A3
:103920008091FC0681608093FC066091FC0670919A
:10393000FD0684E090E00E9436310E947E12B6CFF0
:103940008091FD0688608093FD06EFCF8091FC0694
:103950008260E9CF8091FC068460E5CF8091FC060F
:103960008860E1CF8091FD068160EDCF8091FD06FA
:103970008260E9CF8091FC068061D5CF8091FC0602
:103980008062D1CF8091FC068064CDCF0E947E12F0
:103990008091FC068068C7CF8091FC068C60C3CF05
:1039A0008091FD068360CFCF8091FC068E7FBBCFD8
:1039B0008091FD06877FC7CF8091FC068D7FB3CFB6
:1039C0008091FC068B7FAFCF8091FC06877FABCFC9
:1039D0008091FD068E7FB7CF8091FD068D7FB3CF9E
:1039E0008091FC068F7E9FCF8091FC068F7D9BCFC0
:1039F0008091FC068F7B97CF0E947E128091FC06FF
:103A00008F7791CF8091FC06837F8DCF8091FD06CB
:103A10008C7F99CF8091FC06992782FF939590FB2C
:103A200082F990FB83F97FCF8091FD06982F9095C6
:103A300090FB80F990FB81F986CF9091FC06892F4D
:103A40008F7B96FF80646FCF0E947E129091FC0660
:103A5000892F97FB87F9805866CF61E08EE090E070
:103A60000E94183162CF60E0F9CF9091FC06892F57
:103A70008F7E94FF806157CF9091FC06892F8E7FB7
:103A800090FF816050CF9091FD06892F877F93FF33
:103A9000886059CF89E241CF9272FE01E052F84727
:103AA000EB30F10508F061C0E352FE4C0C9413308A
:103AB0008091EC0680FF1EC0282F2E7F2093EC06FD
:103AC0003091ED064091EE065091EF066091F006C0
:103AD0007091F1068091F2069091F3060E94091808
:103AE0000E940B0B8091EB0681608093EB060E9495
:103AF000900ADCCE81608093EC0661E08695869525
:103B00000E940A1BD3CE911529F00E946E1BCECEC7
:103B10009115D9F30E94601BC9CE911529F00E941E
:103B20000F19C4CE9115D9F30E94FF18BFCE91157D
:103B300029F00E943219BACE9115D9F30E941F19AB
:103B4000B5CE911529F00E945819B0CE9115D9F330
:103B50000E944519ABCE911529F00E945118A6CEAE
:103B60009115D9F30E942F18A1CE9E01205E3245F7
:103B700020323105A8F481112AC0CF7181E090E094
:103B8000FC0102C0EE0FFF1FCA95E2F7EF016E2F96
:103B900083E090E00E941831CE010E94DD0586CEC0
:103BA0008115A9F0CA35FCE7DF0709F49AC008F0CF
:103BB00072C0C1303CE7D30709F491C0C3308CE731
:103BC000D80709F486C0C115DC4709F475C0F701B0
:103BD000858100811181811509F487C0C8010E9487
:103BE0001C09C82F682FC8010E941506B8018C2F28
:103BF0000E94F7060E941408D82FC92FF701C5802C
:103C0000068102950F708091FB068770811501F186
:103C1000DC2CC114F1F0892F807F803461F080E2C8
:103C20008D0F8830A8F0892F807E803221F4D23029
:103C300078F0011569F08091FD0682FF09C082E0ED
:103C40000E94A3068091FB068770DD24D394811126
:103C5000D12C8C2F82958F70883009F435C108F0F3
:103C600065C0843008F046C01C2F1F70823008F4F5
:103C70006EC0C07FC03211F01295107FD11509F4CB
:103C80009CC0D13009F4E5C0C11409F4EFC001159E
:103C900009F4B1C071C0CB35ECE7DE0721F18091AA
:103CA000FD06002482FF0394802DCC35DC4709F00B
:103CB0008ECF0E9454118BCF0E947E122FEF34E3DF
:103CC0008CE0215030408040E1F700C000000E94AD
:103CD000970E6FEF7FEF80E090E00E9436310E94F8
:103CE000A61281E0E6CF80E0E4CFC8010E9456062C
:103CF000C82F7CCF843009F4CAC0D11409F41BC189
:103D00008091FB0680FD17C1F70115828695869587
:103D100086950E94EB05C7010E94E51B8091FB067A
:103D20008695869586950E94FF0505C1893009F420
:103D30005AC18A5F8F70823000F7D23F09F064C1A8
:103D40008C2F8F71C1105DC10E94EB05F2C0C03194
:103D500010F01295107FC114B9F0111569F080E2CE
:103D60008D0F883010F0D11109C08091F406812B9D
:103D70008093F4060E9470118D2F2FC08091FE0653
:103D8000812B8093FE06F6CF8D2F0E943A121115DB
:103D900009F4B3CF80E28D0F883010F0D11104C048
:103DA000812F0E94ED0606C010958091FE068123AA
:103DB0008093FE060E947011A0CF8091FD0682FDC7
:103DC00016C0C11469F0111539F08091F406812BE9
:103DD0008093F4060E94701180E00E94CC118DCF78
:103DE00080E00E943A12111509F487CFD9CFC1148F
:103DF000A1F0011104C0812F0E946A127ECF013010
:103E000009F07BCF8091F506912F9823191709F4BB
:103E100074CF812B8093F50670CF01116ECF812F67
:103E20000E9476129091F506812F8923811529F041
:103E3000812F809589238093F5068091F606912F36
:103E40009823911509F459CF109518231093F6066D
:103E500054CFC11421F0063008F04FCFCCCF05303D
:103E600008F04BCF812F0E94761247CF0115D1F376
:103E7000D93349F4FFEF27EE33E0F15020403040D2
:103E8000E1F700C000008D2F0E943A1236CF8C2F30
:103E9000869586958370811569F0813009F02DCF64
:103EA0008D2F9C2F9370C11002C080E090E00E9483
:103EB000BB0D23CF8D2F9C2F9370C11002C080E0CB
:103EC00090E00E94950D19CF8C2F8370811146C010
:103ED000C1102FC04D2F429546954770440F440F97
:103EE0002D2F2F7030E0042E02C0220F331F0A94B2
:103EF000E2F780E090E0D4FF09C08FE090E002C0DC
:103F0000880F991F4A95E2F780959095C695C695BA
:103F1000C370C230D1F0C330A9F04091F706509180
:103F2000F806C13069F0822B932B842395230E94DD
:103F3000DD050E94800D60E0C7010E945009C6CCDB
:103F4000242B352B822B932BF2CF822B932B20917A
:103F5000F7063091F80682279327E9CFC11491F133
:103F6000C0FFE7CF4D2F429546954770440F440F51
:103F70002D2F2F7030E0042E02C0220F331F0A9421
:103F8000E2F780E090E0D4FF09C08FE090E002C04B
:103F9000880F991F4A95E2F780959095C695C6952A
:103FA000C370C230B9F0C33091F04091F90650911E
:103FB000FA06C13051F0822B932B842395230E9463
:103FC000E405B7CF823070F6B4CF242B352B822B8B
:103FD000932BF5CF822B932B2091F9063091FA0683
:103FE00082279327ECCFCF70C11439F08C2F0E9419
:103FF000EB058D2F0E946A129CCF8D2F0E947612A6
:104000008C2F0E94FF0595CF70F4D03FC9F0D13FAF
:1040100091F0C11409F455C0011509F44FC08D2F5A
:104020000E94CC1186CFD33F19F1D43F91F79091E4
:10403000FD0692FD2BC08C2F8F71C11411F384CE1D
:10404000C114A1F0053008F074CFCF7181E090E089
:10405000FC0102C0EE0FFF1FCA95E2F7EF0180914D
:10406000F9069091FA068E279D27A9CF0630EBCF4F
:1040700080E090E0C11409F4A2CFCF7181E090E01C
:1040800002C0880F991FCA95E2F799CFC11461F059
:104090008C2F8F7192FF58CE982F990F990F990FEF
:1040A00093609093FB0650CE81E00E94A3060230FD
:1040B00008F43FCF82E00E94A3063BCF8C2F8F7184
:1040C00043CE011579F0D93349F4FFEF27EE33E001
:1040D000F15020403040E1F700C000008D2F0E94D9
:1040E0003A1227CF8C2F8F718CCFFE01E851FC47FD
:1040F000E730F10508F006CCE851FE4C0C94133083
:104100009091F406C631FCE7DF0709F0C5CC9A7A36
:1041100081E0911101C080E08093E80685E3911170
:1041200001C089E20E94E10D0E947011BFCBA0E0A6
:10413000B0E0EDE9F0E20C94B92F80913F078031B7
:1041400008F047C080913E07811509F442C0C09134
:10415000000787E0D82E8091FF068C17D1F1EC2E56
:10416000F12CDC9EE0011124FE01EF5FF84F848109
:104170008115A1F1918180913A0798132FC0908108
:104180008091390798132AC08581811127C0028147
:10419000138180913B0790913C07081B190B60E04D
:1041A00089E397E00E9450090C3D1105B8F4809115
:1041B0003F078F70806180933F07C95FD84F888128
:1041C0008F708061888389E397E00E94E51B0E94DD
:1041D0009706CDB7DEB7E7E00C94D52FE70121961F
:1041E000C770B9CFADE0B0E0E8EFF0E20C94B12FCA
:1041F0008C0186E0F801DE01189601900D928A95F7
:10420000E1F7D80115966C90159714965C9089E3A8
:10421000A82E87E0B82E80913D07811120C051144F
:10422000D9F0611409F47EC1C8010E948509811585
:1042300009F478C187E0F801D50101900D928A95C3
:10424000E1F7B1E05B1206C08091390790913A071F
:104250000E9474090E949720FF24F3943FC0F80144
:10426000E280F380D0903E0780913B0790913C071D
:104270004701881A990AD11409F40AC17080C180D3
:1042800060E089E397E00E945009FCED8F169104ED
:1042900008F0DFC0511401F390913A07D80111964C
:1042A0002C91119780913F07803108F094C0F62C33
:1042B000291319C0209139079C91291314C061104A
:1042C00084C08F70806180933F0789E397E00E94EC
:1042D000E51B80913F07F8018683F12C8F2D2D96E9
:1042E000EFE00C94CD2F611070C0E0910007809139
:1042F000FF06AE2F97E0A81317C097E08E1337C0C4
:10430000888599850E947409292F22952F709034F1
:1043100008F441C02A5F2F70223008F450C0C80151
:104320000E94E51BFD2CDACF2A2F30E09A9FD001A6
:104330001124AF5FB84F11964C911197C41207C06A
:104340004C91741204C015964C91411104C0D901CE
:104350001196A770D0CF89E397E00E94E51B87E014
:10436000E9E3F7E0DF011D928A95E9F7B6CF2E2F3A
:1043700030E09E9FF0011124EF5FF84F4181C4129D
:1043800006C04081741203C045814111A6CFF901D6
:104390003196E770B3CF9F70223038F0911551F00D
:1043A000F8019681903130F499CF911519F081156B
:1043B00009F494CF805E883008F490CFB0CF803F6E
:1043C00008F48CCF815F8330F7CF80913F07816005
:1043D00080933F0782CF291315C0209139079C9104
:1043E000291310C061100EC016968C93C8010E944C
:1043F000E51B87E0F801A9E3B7E001900D928A95EB
:10440000E1F72ACFC8010E948509811509F48AC005
:10441000611409F487C080913F07803288F02091B1
:10442000390730913A073A832983FC82EB829091D5
:104430003D079D831E828F83CE0101960E94E51B5E
:1044400087E0F801A9E3B7E001900D928A95E1F7C2
:1044500001CF80913F07803108F47DCF511409F4DA
:10446000FBCE20913A07F80191812913CBCF2091FF
:10447000390790812913C6CF6110C4CF8683C80144
:104480000E94E51B87E0D5011D928A95E9F7E4CEED
:1044900060E089E397E00E945009BCED8B1691041F
:1044A00008F044C0511409F4D7CE6114D9F19091A9
:1044B0003A07F801818198132BC0909139078081C8
:1044C000981326C080913B0790913C07E81AF90A9F
:1044D00060E089E397E00E945009FFEAEF16F104DB
:1044E00008F087CF80913F0780FD83CF803108F4AB
:1044F00080CFD80116968C931697982F907F903F77
:1045000009F474CF982F907F905F8F70892B6CCFB8
:10451000C8010E948509811193CF80913F07816076
:1045200080933F07C8010E94E51B96CE87E0F50106
:1045300011928A95E9F7D1CEABE1B0E0E2EAF2E27E
:104540000C94BC2F4E8B5F8B688F798F8A8F192FBD
:104550009B8F91111092FE061D8A86E0FE017696D1
:10456000DE011F9601900D928A95E1F70A8D0115E3
:1045700061F00B8B1C8B61E0CE010F960E945009FD
:1045800061E0CE010F960E9450090B8B1C8B87E0D7
:10459000FE013F96DE01189601900D928A95E1F793
:1045A000CE0108960E94F220811128C02091FF06BA
:1045B0003091000787E0FE013896DE0111960190E8
:1045C0000D928A95E1F78C858115C1F0822F90E0DC
:1045D00001968770992738171906D9F097E0929FAE
:1045E000D0011124AF5FB84FFE01319601900D92BA
:1045F0009A95E1F78093FF060E94970617E0809155
:1046000000079091FF06891312C06B96E4E00C94AA
:10461000D82F0E947E121092FF061092000787E0AA
:10462000E9E3F7E0DF011D928A95E9F7E7CF189FEC
:10463000C00111248F5F984F0E94F220811529F349
:104640008091000790E0019687709927809300077A
:10465000D6CFA6E0B0E0EFE2F3E20C94BC2F0E94CC
:10466000C61A8C0180919F069091A0068017910731
:1046700079F019821A820E94C61ABC0149815A81B6
:1046800080E090E00E949C221093A00600939F0679
:104690002696E4E00C94D82FA3E1B0E0E2E5F3E243
:1046A0000C94B12FFE013C9688E0DF011D928A95A3
:1046B000E9F783E8E82E81E0F82E8F013F01AA2474
:1046C000A394B12C2DE8822E21E0922EF701819146
:1046D0007F018F3F09F43EC0F894E82FE295EF7018
:1046E000F0E021A18F70A50102C0440F551F8A95EB
:1046F000E2F7CA01922F982B91A392A1809589236A
:1047000082A3789400C0E7E8F1E031E0512C2191D8
:104710002F3F79F0A22FA295AF70A05EB0E08C91F0
:1047200090E02F7002C0959587952A95E2F780FF5B
:1047300089C080E0582A330F8E169F0641F7F70193
:1047400082918F3F11F00E94C30950EA5A95F1F708
:10475000D8015C920F5F1F4FB7E8EB16B1E0FB0684
:1047600009F0B4CF48E050E0B3018EE094E00E943D
:10477000DE306C01892B41F088E0F301AEE0B4E05B
:1047800001900D928A95E1F70091170410E0045E04
:104790001B4FC114D10409F457C081E08093370244
:1047A0000E94C61A909336028093350280919D062E
:1047B000FE0131967F01811509F4A1C084E0DF017B
:1047C0001D928A95E9F7809138028A3008F060C01E
:1047D0004FE856E1B701C8010E941A11811509F48A
:1047E0007CC04EE356E1B701C8010E941A11811541
:1047F00009F473C047E755E1B701C8010E941A11D7
:10480000811509F46AC043E656E1B701C8010E9468
:104810001A11811509F461C01092380280911604B2
:1048200090E044E050E0B701845E9B4F0E94DE3090
:1048300021E020933402892B09F041C06396EFE018
:104840000C94CD2F832F76CF80913702811509F4F8
:10485000ADCFE0903502F09036020E94C61A8E1954
:104860009F09059708F4A2CF44E050E06EE074E0A1
:10487000C8010E94DE30892B41F084E0EEE0F4E0D4
:10488000D80101900D928A95E1F7109237028ECFF0
:10489000C0903202D09033020E94C61A8C199D0932
:1048A000843F914008F094CF80913402811531F219
:1048B00084E0F70111928A95E9F710923402E091B1
:1048C0001604F0E0E45EFB4F89819A81AB81BC81E4
:1048D00080839183A283B383B1CF809138028F3FCD
:1048E00039F40E94C61A9093330280933202DCCFCF
:1048F0008F5F809338028A3008F490CFF2CFC09057
:104900001604D12C9601245E3B4F6901F801808189
:104910009181A281B3818093820690938306A093B4
:104920008406B093850682E896E00E94B20F8093D9
:1049300081068091860690918706A0918806B091A5
:104940008906F60180839183A283B38380908A06CF
:1049500090908B06A0908C06B0908D0680912E02D0
:1049600090912F02A0913002B091310288169906E1
:10497000AA06BB06B1F080922E0290922F02A0925E
:104980003002B09231020E94680E861A970AA80A75
:10499000B90A8092990690929A06A0929B06B092CC
:1049A0009C068BE0EEE8F6E0D70101900D928A9527
:1049B000E1F7F0908F06E0909006D090910600917C
:1049C00097061091980610929806111509F436CFA3
:1049D00010FF0DC089819091EC0680FF1CC0916092
:1049E0009093EC0660E0869586950E940A1B11FF65
:1049F00006C020E04D2D6E2D8F2D0E94731812FFE2
:104A000004C00115A9F00E94E81A13FF17CF81E036
:104A10008093330413CF9E7F9093EC060E940B0B80
:104A20008091EB0681608093EB060E94900ADFCFB5
:104A30000E940B0BEACFCDB7DEB766970FB6F8949E
:104A4000DEBF0FBECDBF85B7806885BF85B78068E4
:104A500085BF84B7877F84BF0FB6F894A8958091EF
:104A60006000886180936000109260000FBE80E853
:104A700090E00FB6F89480936100909361000FBEB0
:104A800081E08093560181EC99E090930502809338
:104A900004020E948E0F0E9413108091E200846035
:104AA0008093E200789480911B04811599F08091A5
:104AB000E9001091EC008F70179511271795182BAE
:104AC0001092E9008091E80083FD0E94BC121F70E3
:104AD0001093E90082E084BD93E095BD9AEF97BD05
:104AE00080936E001092990610929A0610929B067F
:104AF00010929C068091D80080618093D8002AE1B2
:104B00002A95F1F700C08091D900182F117080FD0F
:104B100004C00E948E0F10921B0410939D061093E8
:104B20009E0610931701111509F4D4C010921201BA
:104B30008BE1809313010E94292E809117018091AF
:104B4000170191E08927880F880F8093170494E05C
:104B5000981B9093160484E90E94C30986E60E947C
:104B6000C30987E90E94C30986EC0E94C30907E8CC
:104B700011E0D8018D918D018F3F11F00E94C30982
:104B8000B1E00D381B07A9F788E0ECE1F4E0DF01A4
:104B9000482E1D924A94E9F7EEE0F4E0DF011D9201
:104BA0008A95E9F780E090E00E940231853E9E4FB1
:104BB00009F461C065EE7EEF80E090E00E9436313E
:104BC00060E082E090E00E94183181E090E09093F4
:104BD000F8068093F70661E083E090E00E941831C8
:104BE00060E074E184E090E00E94363160E086E0AD
:104BF00090E00E94183160E087E090E00E94183158
:104C000040E050E0BA0188E090E00E942A3160E084
:104C100083E290E00E94183160E08CE090E00E9416
:104C2000183160E08DE090E00E94183119821A82FC
:104C30001B821C821D821E821F82188648E050E063
:104C400067E170E0CE0101960E94083140E050E03B
:104C5000BA018FE190E00E942A3140E050E0BA01B1
:104C60008FE090E00E942A3140E050E0BA0183E1F9
:104C700090E00E942A3182E090E00E94F43080931C
:104C8000240484E090E00E9402319093FD0680931A
:104C9000FC060E944C23EFEFF6E721E0E150F040E4
:104CA0002040E1F700C000000E944C23E0919E06E6
:104CB00011E0E127EE0FEE0FF0E0E45EFB4F8081A4
:104CC00081FF0EC06FEF7FEF80E090E00E943631F1
:104CD0000E94970E8BE180931201809313012DCFD8
:104CE00083E090E00E94F43090E00E94DD05809126
:104CF0009D068127880F8093600680E880933804A2
:104D00000E94A22C6BE070E08EE299E00E946B1989
:104D1000811509F43FC08091600665E070E081FD77
:104D20003BC189E299E00E946B19811599F16DE010
:104D300070E087E199E00E946B19811559F10E949A
:104D4000680EDC01CB01805A9541AF4FBF4F809375
:104D5000640690936506A0936606B0936706E0E646
:104D6000F4E080E092E0DF019C011D922150304090
:104D7000E1F7F0933704E09336048FEF9FEF9093C1
:104D800063068093620681E080936B0680936806D9
:104D90001092610680911804811195C088E090E01E
:104DA0000E94FC306B8B7C8B8D8B9E8B83E290E022
:104DB0000E94F430282F30E040E050E060E070E0E6
:104DC00080E090E000E20E9428306B887C888D882B
:104DD0009E8823013401812C912C540149865A86E6
:104DE0006B867C868D869E86AF86B88A7B882729CF
:104DF000352946298C8458292093EC063093ED06FA
:104E00004093EE065093EF066093F0067093F10620
:104E10008093F2069093F3063091EB063360309363
:104E2000EB062430F0F525E02093EC061092ED0619
:104E30002FEF2093EE0622E32093EF061092F00668
:104E400025E030E04FEF52E360E00E94091888E06F
:104E500090E00E94FC306B017C0183E290E00E94B4
:104E6000F430282F30E040E050E060E070E080E077
:104E700090E00E942830260137012C293529462947
:104E800057292093EC063093ED064093EE0650939D
:104E9000EF066093F0067093F1068093F20690930C
:104EA000F3060E947A0A0E940B0B0E946B0D809100
:104EB000EC0680FF05C060E0869586950E940A1B7F
:104EC00081E08093180480919D06811102C00E94A8
:104ED0002C2E88E191E09093C2068093C106FAE0FF
:104EE0004F2E512C612C712C80911B0410E402E197
:104EF000853009F489C00E944C2305E214E07CE16E
:104F0000E72E74E0F72ED701F80191918D916DE2B3
:104F1000862E64E0962E8E169F0609F47FC09817A1
:104F2000A1F380909D06D12CD701CD907D01F80191
:104F300091908F019C1439F19C24B12CAA24A39444
:104F4000892D8A218115C1F08114B1F0B982DA82EC
:104F50000E94C61A9C838B83F1E0FD8391E08C2D27
:104F60008A21811101C090E09E8349815A816B8121
:104F70007C818D810E949C22B394AA0C26E0B212FF
:104F8000DFCFF801C292D39438E0D312CDCF0E9484
:104F9000750EDD24D39447C084E299E0C4CE80919D
:104FA0001B04843031F10E947F1910921904E8E14A
:104FB000AE2EB12C0FB6F894A895A09260000FBE4B
:104FC0001093600083B7817F846083BF83B7816063
:104FD00083BF7894889583B78E7F83BF0FB6F8948C
:104FE000A8958091600088618093600010926000B5
:104FF0000FBE0E944C23ECE1F4E081918111D5C2F7
:1050000024E0E432F207C9F780911B04853009F4EB
:10501000C6CF0E947E120E94800D6DCF981381CF63
:105020000E942923D12C8091EA06811509F470C0D1
:105030008091E906E091EC06E695E695E81BE093A1
:105040003204853109F486C108F030C1893009F491
:1050500075C108F01CC1823009F45AC1863009F4C8
:1050600062C100ED17E055EEE52E59E0F52E809176
:105070003304811561F0109233040E94D51A909385
:1050800031048093300410923504109234040E944D
:10509000D51A1C0180913004909131049101281B94
:1050A000390B2F3F3F47A0F520912F042115B9F070
:1050B00010922F0420912D0430912E04A101421B47
:1050C000530B4F3F5F4758F4205D3A4830932E040E
:1050D00020932D042091EB0628602093EB06A090EE
:1050E0003404B0903504800F911F90933104809365
:1050F000300480E394E0F7010995809134049091A5
:105100003504892B29F4AB2819F0F1E0F0932F0432
:1051100080916B06811509F4ABC00091690610916E
:105120006A060E94C61A801B910BC29708F480C0C1
:105130000E94C61A90936A068093690680E694E0FE
:10514000909337048093360480919D06811509F46D
:105150004DC187EB99E00E94851A4091F906909124
:10516000FA06292F30E088E0911103C080E0242F57
:10517000392FA90174E0569547957A95E1F74115C5
:10518000510511F08C5F9A01A901569547955695E6
:1051900047954115510511F08E5F9A013695279577
:1051A000232B09F4E2C08F5F83300CF0E4C089EA5E
:1051B00099E00E94971A8091E606805D0E94BF19CF
:1051C00084E999E00E94851A8091E506805D0E943D
:1051D000BF1980E999E00E94851A8090E3069090BB
:1051E000E40680912201909123018816990609F026
:1051F000CAC080913F04803209F0C5C0E9E3F4E001
:105200008F0181918032E1F3F80101900020E9F7EC
:105210009F012150310979010E151F0508F4E0C0E6
:105220008EE899E00E94851A809157010E94BF196B
:105230008091620690916306892B09F0DCC0809111
:1052400068068115A9F00E94680E0091640610910D
:1052500065062091660630916706601B710B820B14
:10526000930B6F3F7F4F8F4F9F4710F40E947F1922
:10527000D1100E9495190E94800D90916C0689179B
:1052800009F432CE80936C060E94680E2DCE8F30CA
:1052900009F0E7CEE695F0E0EF5BF64FE4910E2FD4
:1052A00010E090E7E92E9BE0F92EE1CE04EF11E04B
:1052B000FBE2EF2EFDE0FF2E843209F4D8CEA8F4F5
:1052C00008E210E0E0E8EE2EECE0FE2E883109F472
:1052D000CECE833209F0C5CEECE3F9E0059115910D
:1052E000B9E0EB2EBDE0FB2EC2CE853209F0B9CE7F
:1052F0008E2F63E00E94E52FE92FF0E0E75CF64F88
:10530000E4910E2F10E0AEE3EA2EA7E1FA2EAFCE25
:10531000F0E0E65BF64FE4910E2F10E045E1E42E5D
:105320004BE0F42EA4CEF0E0E95BF64FE4910E2FB3
:1053300010E035EFE32E3AE0F32E99CEE695F0E05B
:10534000EC5BF64FE4910E2F10E02FE2E22E2BE003
:10535000F22E8DCEF0E0E25CF64FE4910E2F10E0DD
:1053600086EFE82E8BE0F82E82CE823009F039C12C
:1053700083EA99E01ECF833019F086E999E019CFCE
:105380008CE999E016CF909223018092220180E26D
:1053900080933F04A12CB12C10923E043EE3E32EF7
:1053A00034E0F32E00E010E0C501B401A301920146
:1053B0000E947E31605D603341F40115110529F0D2
:1053C00089288A288B2809F460E2D7016E937D0131
:1053D00049015A010F5F1F4F0530110529F70ECF04
:1053E000D8018D918D010E94BF1916CF8EE499E0EE
:1053F0000E94851A1DCF80916B06811509F41FCF7D
:105400008091610681111BCF0E949519209162063F
:10541000309163062115310509F411CF10E041E008
:1054200050E0812F90E04A01012E02C0880C991CA7
:105430000A94E2F7B40162237323672B11F41F5F10
:10544000F0CF2091600620FF9DC0912F990F990FFA
:10545000990F37E0390F80E023E090932601809385
:1054600029013093270120932A0124E630E047E008
:1054700050E064E271E088E70E94DC2C892B09F09F
:10548000DECEB0E21B9FA00111248091600680FF58
:1054900085C0E0E4F4E080E2DF011D928A95E9F73F
:1054A000E1E9F1E0FC8BEB8B6DE871E087E0E82E41
:1054B000BB24B394EB89FC89A191FC8BEB8BFB01A2
:1054C0008191BF01840F952F911D9C01205A3B4F64
:1054D0003A8B298BEA2FF0E0E05CFB4F80E090E014
:1054E000CE2CC81AFB2C082E01C0FF0C0A94EAF738
:1054F000A989BA89BA87A98700E0A985BA851D91CB
:10550000BA87A9871F212C2D201B277030E0B12FCF
:10551000022E01C0BB0F0A94EAF73195219531099B
:105520002770332701C016952A95EAF71B2B208197
:10553000122B10830F5F083001F7019631968830E7
:10554000910571F6EB89FC89E559F14009F0B2CF7C
:1055500004E610E020E230E040E454E060E488E754
:105560000E94762D892B09F06ACE809490948091C8
:105570006206909163068821992190936306809337
:1055800062065DCE9695879596958795282F912FE3
:105590009295990F90763FE1390F5FCF405A5B4F5C
:1055A00004E610E020E230E0D9CF80911A048115A2
:1055B00009F42ACD30E139BD09BD09B400FEFDCFA3
:1055C0008091D8008F7D8093D8008091E000826028
:1055D0008093E0008091E00081FDFCCF0E947E126C
:1055E00013CD08F0CACE8FEA99E0E3CD78941F92EC
:1055F0001FB61F9211248F939F93AF93BF938091F7
:10560000540290915502A0915602B0915702019612
:10561000A11DB11D8093540290935502A093560290
:10562000B0935702BF91AF919F918F911F901FBE72
:105630001F9018951F920F920FB60F9211242F935F
:105640003F934F935F936F937F938F939F93AF930A
:10565000BF93EF93FF938091E10082FF09C0809197
:10566000E20082FF05C08091E1008B7F8093E10022
:105670008091DA0080FF24C08091D80080FF20C094
:105680008091DA008E7F8093DA008091D90080FFCC
:10569000A9C080E189BD82E189BD09B400FEFDCFCA
:1056A00081E080931B0480914302811109C00E9414
:1056B0008E0F0E9413108091E20084608093E200BC
:1056C0008091E10080FF1AC08091E20080FF16C047
:1056D0008091E2008E7F8093E2008091E200806101
:1056E0008093E2008091D80080628093D80019BC3A
:1056F00085E080931B0483E0809356018091E10054
:1057000084FF2FC08091E20084FF2BC080E189BD1F
:1057100082E189BD09B400FEFDCF8091D8008F7D64
:105720008093D8008091E1008F7E8093E10080918A
:10573000E2008F7E8093E2008091E200816080939E
:10574000E20080914202811509F452C084E0809306
:105750001B0480911B04843009F052C082E08093C6
:1057600056018091E10083FF2CC08091E20083FF0D
:1057700028C08091E100877F8093E10082E08093E0
:105780001B04109242028091E1008E7F8093E10021
:105790008091E2008E7F8093E2008091E200806140
:1057A0008093E20042E060E080E00E94D30F8091AD
:1057B000F00088608093F00081E080935601809330
:1057C0005501FF91EF91BF91AF919F918F917F9183
:1057D0006F915F914F913F912F910F900FBE0F905E
:1057E0001F90189519BC10921B041092430268CFA9
:1057F0008091E30087FF02C083E0A9CF81E0A7CFBB
:1058000081E0ADCF1F920F920FB60F921124EF924D
:10581000FF920F931F932F933F934F935F936F9339
:105820007F938F939F93AF93BF93CF93EF93FF9308
:1058300009EE10E0F8018081C091EC008F70C795EF
:10584000CC27C795C82B108280EFE82EF12CF701EA
:105850008081877F808378940E94BC12F801108237
:10586000F701808188608083CF70F801C083FF9149
:10587000EF91CF91BF91AF919F918F917F916F9158
:105880005F914F913F912F911F910F91FF90EF905A
:105890000F900FBE0F901F901895FF920F931F93BC
:1058A000CF93DF93182FEB011092BC0084EA809312
:1058B000BC000E94C61A082FF92E8091BC0087FFF9
:1058C00028C08091B900887F883029F08091B90084
:1058D000887F8031A1F51093BB0084E88093BC00E1
:1058E0000E94C61A182F092F8091BC0087FF1FC085
:1058F0002091B900287F80E090E0283199F081E084
:1059000090E0203411F480E090E091958195910928
:1059100009C0802F9F2D0E947B1BC817D90768F6EE
:105920008EEF9FEFCDB7DEB7E5E00C94D72F812F38
:10593000902F0E947B1BC817D907B0F6F1CF8FEFCD
:105940009FEFF0CF1092B9008CE08093B80080E018
:1059500008950F931F93CF93DF93EB018093BB00C8
:1059600084E88093BC000E94C61A182F092F8091EA
:10597000BC0087FF14C02091B900287F81E090E02F
:10598000283211F480E090E0919581959109DF91A2
:10599000CF911F910F9120E060E070E00895CF3F1C
:1059A000DC0729F3812F902F0E947B1BC817D90792
:1059B000F0F68EEF9FEFEBCFA0E0B0E0E2EEFCE27E
:1059C0000C94B32F782EB62EA72E6A01E9010E94FF
:1059D000C61A4C01C431D10528F1CF3FDC0731F1A3
:1059E000CE0164E170E00E949A2FF62EE72E6F2D13
:1059F0007E2D872D0E944D2C8C01892BD1F4EB2C10
:105A0000FA2CCE0CDF1CEC14FD0419F00115110565
:105A1000D1F084E98093BC00C801CDB7DEB7EDE0DA
:105A20000C94CF2FFF24F394E12CE1CF85E0F82EE6
:105A3000FBCFCF3FDC07D9F2C4010E947B1BC81704
:105A4000D907A8F6DCCFBE01F70181917F010E9442
:105A5000A92C8C01D8CFA0E0B0E0E1E3FDE20C94EA
:105A6000B32F782EB62EA72E6A0189010E94C61A7E
:105A70004C010431110518F10F3F100719F1C8014D
:105A800064E170E00E949A2FEB01BE01872D0E9415
:105A90004D2C7C01892BC1F4CB2DDA2DCC0EDD1ED3
:105AA000CC15DD0519F0E114F104C1F084E980930F
:105AB000BC00C701CDB7DEB7EDE00C94CF2FC1E03D
:105AC000D0E0E3CFC5E0FCCF0F3F1007F1F2C401F7
:105AD0000E947B1B08171907C0F6DECFFE018491D8
